{
  "contractName": "Dice",
  "abi": [
    {
      "inputs": [
        {
          "internalType": "uint256",
          "name": "faces",
          "type": "uint256"
        }
      ],
      "name": "roll",
      "outputs": [
        {
          "internalType": "uint256",
          "name": "",
          "type": "uint256"
        }
      ],
      "stateMutability": "nonpayable",
      "type": "function"
    }
  ],
  "bytecode": "0x608060405260015f55348015610013575f80fd5b506102af806100215f395ff3fe608060405234801561000f575f80fd5b5060043610610029575f3560e01c80631f7b4f301461002d575b5f80fd5b610047600480360381019061004291906100f9565b61005d565b6040516100549190610133565b60405180910390f35b5f81610067610078565b6100719190610179565b9050919050565b5f805f81548092919061008a906101d6565b919050555044425f546040516020016100a59392919061023d565b604051602081830303815290604052805190602001205f1c905090565b5f80fd5b5f819050919050565b6100d8816100c6565b81146100e2575f80fd5b50565b5f813590506100f3816100cf565b92915050565b5f6020828403121561010e5761010d6100c2565b5b5f61011b848285016100e5565b91505092915050565b61012d816100c6565b82525050565b5f6020820190506101465f830184610124565b92915050565b7f4e487b71000000000000000000000000000000000000000000000000000000005f52601260045260245ffd5b5f610183826100c6565b915061018e836100c6565b92508261019e5761019d61014c565b5b828206905092915050565b7f4e487b71000000000000000000000000000000000000000000000000000000005f52601160045260245ffd5b5f6101e0826100c6565b91507fffffffffffffffffffffffffffffffffffffffffffffffffffffffffffffffff8203610212576102116101a9565b5b600182019050919050565b5f819050919050565b610237610232826100c6565b61021d565b82525050565b5f6102488286610226565b6020820191506102588285610226565b6020820191506102688284610226565b60208201915081905094935050505056fea26469706673582212209872da9b5ca17540a34bac703fef7bca8bc31cc47f224d899c13dc0e4885b67f64736f6c63430008150033",
  "immutableReferences": {},
  "source": "// SPDX-License-Identifier: MIT\npragma solidity ^0.8.19;\n\ncontract Dice {\n    uint counter = 1;\n\n    function random() private returns (uint) {\n        counter++;\n        return uint(keccak256(abi.encodePacked(block.prevrandao, block.timestamp, counter)));\n    }\n\n    function roll(uint faces) public returns (uint) {\n        return random() % faces;\n    }\n}",
  "sourcePath": "/Users/mikhailrogachev/Development/dnd-dice-solidity/contracts/dice.sol",
  "compiler": {
    "name": "solc",
    "version": "0.8.21+commit.d9974bed.Emscripten.clang"
  },
  "schemaVersion": "3.4.16",
  "updatedAt": "2023-11-30T19:45:38.150Z",
  "devdoc": {
    "kind": "dev",
    "methods": {},
    "version": 1
  },
  "userdoc": {
    "kind": "user",
    "methods": {},
    "version": 1
  }
}